:020000040800F2
:10000000B00400209D010008E3020008DB020008A4
:10001000DF020008E5010008630900080000000095
:10002000000000000000000000000000890400083B
:10003000E9010008000000005D03000879050008E0
:10004000B7010008B7010008B7010008B7010008B0
:10005000B7010008B7010008B7010008B7010008A0
:10006000B7010008B7010008B7010008B701000890
:10007000B7010008B7010008B7010008B701000880
:10008000B7010008B7010008B7010008B701000870
:10009000B7010008B7010008B7010008B701000860
:1000A000B7010008B7010008B7010008B701000850
:1000B000B7010008B7010008B7010008B701000840
:1000C000B7010008B7010008B7010008B701000830
:1000D000B701000861060008B7010008B701000871
:1000E000B7010008B7010008B7010008B701000810
:1000F000B7010008B7010008B7010008B701000800
:10010000B7010008B7010008B7010008B7010008EF
:10011000B7010008B7010008B7010008B7010008DF
:10012000B7010008B7010008B7010008B7010008CF
:10013000B7010008B7010008B7010008B7010008BF
:10014000B7010008B7010008B7010008B7010008AF
:10015000B7010008B7010008B7010008B70100089F
:10016000B7010008B7010008B7010008B70100088F
:10017000B7010008B7010008B7010008B70100087F
:10018000B7010008B7010008DFF80CD000F018F83C
:1001900000480047A10A0008B00400200648804734
:1001A00006480047FEE7FEE7FEE7FEE7FEE7FEE75C
:1001B000FEE7FEE7FEE7FEE7F90500088901000813
:1001C000064C074D06E0E06840F0010394E80700A4
:1001D00098471034AC42F6D3FFF7DAFFFC0A000868
:1001E0001C0B000800BFFEE770470000044A1168BE
:1001F00000BF034A1268521A8242FAD370470000C5
:1002000024000020F0B50A4600210023002400BF8E
:100210003DE0012505FA01F3156805EA03049C4257
:1002200034D105684F000326BE40B54305601579FB
:100230004E00B5400668354305601579012D02D0A2
:100240001579022D16D185684F000326BE40B543AF
:10025000856055794E00B5408668354385604568B0
:1002600001268E40B5434560456896798E40B6B20A
:1002700035434560C5684F000326BE40B543C560A1
:10028000D5794E00B540C6683543C560491C102974
:10029000BFD3F0BDF0B5002300244D07ED0E02FAE8
:1002A00005F3CE1000F1200555F826504E07F70E45
:1002B0000F26BE40B543CF1000F1200646F8275068
:1002C000CE1000F1200555F8265045EA0304CE1063
:1002D00000F1200545F82640F0BD00BFFEE700BF55
:1002E000FEE7704770B5002100230F22C4781CB3CD
:1002F000174C246804F4E064C4F5E064C4F30721F7
:10030000C1F10404E3B20A4144789C40E1B284782C
:10031000144021430C07210E0E4C057861550478DA
:1003200004F01F050124AC4005786D11AD0005F106
:10033000E025C5F8004109E0047804F01F05012418
:10034000AC40054D0678761145F8264070BD00009A
:100350000CED00E000E400E080E100E07047000008
:1003600029B1064A12680243044B1A6004E0034AAA
:1003700012688243014B1A60704700003038024017
:1003800029B1064A12680243044B1A6004E0034A8A
:1003900012688243014B1A607047000044380240E3
:1003A000F0B5002100220024022500260223324F4E
:1003B0003F6807F00C0121B1042905D0082937D185
:1003C00005E02E4F076036E02D4F076033E02A4FDF
:1003D0003F1F3F68C7F38056274F3F1F3F6807F016
:1003E0003F036EB1264FB7FBF3F7DFF88CC0ACF1DB
:1003F000040CDCF800C0CCF3881C07FB0CF40CE008
:100400001E4FB7FBF3F7DFF870C0ACF1040CDCF85B
:1004100000C0CCF3881C07FB0CF4174F3F1F3F684C
:10042000C7F301477F1C7D00B4FBF5F7076002E0CE
:10043000124F076000BF00BF0F4F3F6807F0F00189
:100440000909104F7A5C0768D74047600A4F3F6838
:1004500007F4E051890A0B4F7A5C4768D740876000
:10046000054F3F6807F46041490B064F7A5C4768C7
:10047000D740C760F0BD0000083802400024F400F7
:1004800000127A0014000020704700000CB5002014
:10049000019000903448006840F480303249086090
:1004A00000BF3148006800F4003000900198401C03
:1004B0000190009818B90198B0F5A04FF1D12A48E1
:1004C000006800F4003010B10120009001E000202D
:1004D00000900098012846D123484030006840F041
:1004E00080502149403108602048006840F4404075
:1004F0001E4908601C48083000681B490831086024
:100500000846006840F4004008600846006840F46F
:10051000A05008601648091F0860081F006840F0D6
:100520008070091F086000BF0F48006800F000706D
:100530000028F9D040F205700E4908600A480830DA
:10054000006820F003000849083108600846006888
:1005500040F00200086000BF03480830006800F067
:100560000C000828F8D10CBD003802400070004093
:1005700008544007003C024002480068401C014902
:10058000086070472400002030B50020164908603C
:1005900000BF164800684FF47A72B0FBF2F1481EB3
:1005A000B0F1807F01D301201BE0481E4FF0E02214
:1005B000506150170F22002807DA13071D0E0C4B4D
:1005C00000F00F04241F1D5503E013071C0E094BF8
:1005D0001C5400BF00204FF0E02290610720106102
:1005E00000200028D5D130BD2400002000000020CC
:1005F00018ED00E000E400E010B51548006840F494
:100600007000134908601348006840F00100114968
:10061000086000200F49083108600E4800680E4944
:1006200008400C4908600D48091D0860081F006853
:1006300020F48020091F0860002006490C31086062
:10064000FFF724FF4FF0006001498039086010BDBA
:1006500088ED00E000380240FFFFF6FE1030002475
:1006600010B540F22551144800F0B9F8012821D105
:10067000002240F22551104800F0DBF80F480078C6
:100680007F2811DA0C4800F063F9C1B20B480478F6
:10069000601C0A4A10700A480155012240F2255197
:1006A000054800F0C6F805E0002240F22551024856
:1006B00000F0BFF810BD000000100140280000202D
:1006C0003000002010B50022002340F66A14A14239
:1006D00000D100BF0A1201249440A3B2DC4304807D
:1006E00010BD21B1828942F40052828104E08289E6
:1006F0004DF6FF731A4082817047000000B587B045
:1007000001210846FFF72CFE01211020FFF738FEDB
:10071000072209212948FFF7BDFD07220A212748A2
:10072000FFF7B8FD4FF4C060019002208DF808007B
:100730008DF8090000208DF80A0001208DF80B00CB
:1007400001A91E48FFF75EFD25208DF8000000205E
:100750008DF801008DF8020001208DF80300684635
:10076000FFF7C0FD4FF4E13003900020ADF810001A
:10077000ADF81200ADF81400ADF818000C20ADF87B
:10078000160003A90E4800F079F801210C48FFF784
:10079000A8FF00BF40210A4800F014F80028F9D053
:1007A00040F226610648FFF78DFF012240F22551F5
:1007B000034800F03EF807B000BD00000000024012
:1007C0000010014002460020B1F5007F00D100BFBB
:1007D00013880B400BB1012000E00020704770B57A
:1007E0000246002400230025002040F66A16B1428C
:1007F00000D100BFC1F3421501F01F03012606FA24
:1008000003F3012D02D19689334006E0022D02D177
:10081000168A334001E0968A33400C12012606FA0C
:1008200004F41688344013B10CB1012000E000201C
:1008300070BDF0B50346002400260025002040F6D8
:100840006A17B94200D100BF1846C1F3421401F043
:100850001F06012707FA06F5012C01D10C3004E030
:10086000022C01D1103000E014301AB107682F4378
:10087000076002E00768AF430760F0BD2DE9FF475E
:1008800005460E460024A14600BFA046B08900B12F
:1008900000BF2C8A24F44054F08804432C82AC8995
:1008A00041F20C608443B088318908437189084360
:1008B0000443AC81AC8A24F44074B0890443AC8214
:1008C0006846FFF76DFD2048854202D01F488542EB
:1008D00002D1DDF80C9001E0DDF80890A88900F461
:1008E000004040B109EBC90000EB09103168490034
:1008F000B0FBF1F707E009EBC90000EB0910316824
:100900008900B0FBF1F76420B7FBF0F00401200987
:10091000642101FB1078A88900F4004040B1322026
:1009200000EBC800B0FBF1F000F00700044308E062
:10093000322000EB08106421B0FBF1F000F00F0052
:1009400004432C81BDE8FF870010014000140140E2
:1009500001468888C0F308007047C1F3080282800E
:10096000704700BFFEE700000FB4054B10B503A9A8
:10097000044A029800F017F810BC5DF814FB000060
:100980007D0A00082C00002002E008C8121F08C1E0
:10099000002AFAD170477047002001E001C1121F00
:1009A000002AFBD170472DE9F84F994692468846B8
:1009B0000546002706E025280AD051464A469047BA
:1009C0006D1C7F1C28780028F5D13846BDE8F88FCB
:1009D000002315F8011F18462E2915D115F8011FFF
:1009E00004232A290DD06FF02F022978A1F13004B9
:1009F000092C09D800EB800002EB400008446D1C74
:100A0000F3E758F8040B6D1C2A78002ADDD0632A1E
:100A100007D0732A0FD0104651464A4690477F1C94
:100A20002AE018F8042B8DF8002000218DF8011021
:100A30006E46012103E058F8046B4FF0FF315A076E
:100A40004FF0000401D409E0641C84420BDA8C42AC
:100A5000FADB325D002AF7D105E0641C8C42FCDB36
:100A6000305D0028F9D1274404E016F8010B514607
:100A70004A469047641EF8D26D1CA3E770B5044641
:100A80000D46E1B20548FFF768FF00BF402103486B
:100A9000FFF798FE0028F9D0204670BD00100140F5
:100AA000FFF772FDFFF72AFE14E00FE00AA0FFF740
:100AB0005BFF0A20FFF79AFB0C490DA0FFF754FFDC
:100AC0000A20FFF793FB00200B4908700A480078C2
:100AD0000028EBD1E9E70000C4E3B7A2CBCDB5C451
:100AE000CAFDBEDDCEAA3A0D0A000000300000208B
:100AF00025730D0A00000000280000201C0B0008D0
:100B00000000002030000000880900084C0B00089D
:100B1000300000208004000098090008007A030AD1
:100B2000000000000000000001020304060708099D
:100B30000000000001020304010203040607080983
:0C0B4000000000000000000000000000A9
:040000050800019D51
:00000001FF
