:020000040800F2
:10000000300400209D010008E3020008DB02000824
:10001000DF020008E50100088D070008000000006D
:1000200000000000000000000000000011040008B3
:10003000E901000800000000E502000801050008D1
:10004000B7010008B7010008B7010008B7010008B0
:10005000B7010008B7010008B7010008B7010008A0
:10006000B7010008B7010008B7010008B701000890
:10007000B7010008B7010008B7010008B701000880
:10008000B7010008B7010008B7010008B701000870
:10009000B7010008B7010008B7010008B701000860
:1000A000B7010008B7010008B7010008B701000850
:1000B000B7010008B7010008B7010008B701000840
:1000C000B7010008B7010008B7010008B701000830
:1000D000B7010008B7010008B7010008B701000820
:1000E000B7010008B7010008B7010008B701000810
:1000F000B7010008B7010008B7010008B701000800
:10010000B7010008B7010008B7010008B7010008EF
:10011000B7010008B7010008B7010008B7010008DF
:10012000B7010008B7010008B7010008B7010008CF
:10013000B7010008B7010008B7010008B7010008BF
:10014000B7010008B7010008B7010008B7010008AF
:10015000B7010008B7010008B7010008B70100089F
:10016000B7010008B7010008B7010008B70100088F
:10017000B7010008B7010008B7010008B70100087F
:10018000B7010008B7010008DFF80CD000F018F83C
:100190000048004705080008300400200648804752
:1001A00006480047FEE7FEE7FEE7FEE7FEE7FEE75C
:1001B000FEE7FEE7FEE7FEE781050008890100088B
:1001C000064C074D06E0E06840F0010394E80700A4
:1001D00098471034AC42F6D3FFF7DAFF4C0800081A
:1001E0006C08000800BFFEE770470000044A116871
:1001F00000BF034A1268521A8242FAD370470000C5
:1002000024000020F0B50A4600210023002400BF8E
:100210003DE0012505FA01F3156805EA03049C4257
:1002200034D105684F000326BE40B54305601579FB
:100230004E00B5400668354305601579012D02D0A2
:100240001579022D16D185684F000326BE40B543AF
:10025000856055794E00B5408668354385604568B0
:1002600001268E40B5434560456896798E40B6B20A
:1002700035434560C5684F000326BE40B543C560A1
:10028000D5794E00B540C6683543C560491C102974
:10029000BFD3F0BDF0B5002300244D07ED0E02FAE8
:1002A00005F3CE1000F1200555F826504E07F70E45
:1002B0000F26BE40B543CF1000F1200646F8275068
:1002C000CE1000F1200555F8265045EA0304CE1063
:1002D00000F1200545F82640F0BD00BFFEE700BF55
:1002E000FEE770477047000029B1064A12680243D2
:1002F000044B1A6004E0034A12688243014B1A60FF
:10030000704700003038024029B1064A12680243A3
:10031000044B1A6004E0034A12688243014B1A60DE
:100320007047000044380240F0B50021002200244C
:10033000022500260223324F3F6807F00C0121B14D
:10034000042905D0082937D105E02E4F076036E093
:100350002D4F076033E02A4F3F1F3F68C7F3805699
:10036000274F3F1F3F6807F03F036EB1264FB7FB93
:10037000F3F7DFF88CC0ACF1040CDCF800C0CCF370
:10038000881C07FB0CF40CE01E4FB7FBF3F7DFF8FB
:1003900070C0ACF1040CDCF800C0CCF3881C07FB87
:1003A0000CF4174F3F1F3F68C7F301477F1C7D00C8
:1003B000B4FBF5F7076002E0124F076000BF00BF13
:1003C0000F4F3F6807F0F0010909104F7A5C07688A
:1003D000D74047600A4F3F6807F4E051890A0B4F46
:1003E0007A5C4768D7408760054F3F6807F46041F3
:1003F000490B064F7A5C4768D740C760F0BD0000E4
:10040000083802400024F40000127A001400002092
:10041000704700000CB5002001900090344800683F
:1004200040F480303249086000BF3148006800F471
:10043000003000900198401C0190009818B9019874
:10044000B0F5A04FF1D12A48006800F4003010B197
:100450000120009001E0002000900098012846D182
:1004600023484030006840F0805021494031086006
:100470002048006840F440401E4908601C4808308D
:1004800000681B49083108600846006840F40040D5
:1004900008600846006840F4A05008601648091F2C
:1004A0000860081F006840F08070091F086000BFE6
:1004B0000F48006800F000700028F9D040F2057085
:1004C0000E4908600A480830006820F00300084917
:1004D000083108600846006840F00200086000BF6C
:1004E00003480830006800F00C000828F8D10CBD63
:1004F000003802400070004008544007003C0240B1
:1005000002480068401C0149086070472400002030
:1005100030B500201649086000BF164800684FF447
:100520007A72B0FBF2F1481EB0F1807F01D3012056
:100530001BE0481E4FF0E022506150170F220028A8
:1005400007DA13071D0E0C4B00F00F04241F1D5576
:1005500003E013071C0E094B1C5400BF00204FF092
:10056000E02290610720106100200028D5D130BD25
:10057000240000200000002018ED00E000E400E06E
:1005800010B51548006840F470001349086013481E
:10059000006840F001001149086000200F4908314F
:1005A00008600E4800680E4908400C4908600D4874
:1005B000091D0860081F006820F48020091F0860DA
:1005C000002006490C310860FFF724FF4FF000605F
:1005D00001498039086010BD88ED00E00038024014
:1005E000FFFFF6FE1030002421B1828942F4005250
:1005F000828104E082894DF6FF731A408281704740
:1006000000B587B001210846FFF76EFE01211020DA
:10061000FFF77AFE072209211C48FFF73BFE07225D
:100620000A211A48FFF736FE4FF4C06001900220FD
:100630008DF808008DF8090000208DF80A000120CF
:100640008DF80B0001A91148FFF7DCFD4FF4E130F4
:1006500003900020ADF81000ADF81200ADF81400C2
:10066000ADF818000C20ADF8160003A9084800F0FA
:100670001FF801210648FFF7B7FF00BF40210448DB
:1006800000F008F80028F9D007B000BD00000240D3
:100690000010014002460020B1F5007F00D100BFEC
:1006A00013880B400BB1012000E0002070470000D0
:1006B0002DE9FF4705460E460024A14600BFA0468F
:1006C000B08900B100BF2C8A24F44054F088044360
:1006D0002C82AC8941F20C608443B0883189084394
:1006E000718908430443AC81AC8A24F44074B08916
:1006F0000443AC826846FFF717FE2048854202D0CB
:100700001F48854202D1DDF80C9001E0DDF8089029
:10071000A88900F4004040B109EBC90000EB0910C2
:1007200031684900B0FBF1F707E009EBC90000EBC5
:10073000091031688900B0FBF1F76420B7FBF0F0D5
:1007400004012009642101FB1078A88900F400400D
:1007500040B1322000EBC800B0FBF1F000F0070020
:10076000044308E0322000EB08106421B0FBF1F0F4
:1007700000F00F0004432C81BDE8FF87001001400A
:1007800000140140C1F308028280704700BFFEE7F9
:10079000014A024900F013B8E107000828000020D0
:1007A00002E008C8121F08C1002AFAD1704770473A
:1007B000002001E001C1121F002AFBD170472DE982
:1007C000F04116460F460446002503E03946B0477F
:1007D000641C6D1C20780028F8D12846BDE8F08103
:1007E00070B504460D46E1B20548FFF7CBFF00BFE8
:1007F00040210348FFF74EFF0028F9D0204670BD86
:1008000000100140FFF784FEFFF7FAFE0DE007A09D
:10081000FFF7BEFF4FF4FA70FFF7E8FC07A0FFF701
:10082000B7FF4FF4FA70FFF7E1FCF0E768656C6C16
:100830006F20776F726C640D0A000000676F6F6441
:100840002077656C6C200D0A000000006C08000821
:10085000000000202C000000A007000898080008F5
:100860002C00002004040000B0070008007A030AEE
:100870000000000000000000010203040607080950
:100880000000000001020304010203040607080936
:08089000000000000000000060
:040000050800019D51
:00000001FF
